:202000008E202A86093402AD9F7FE486073402AD9F7FE48E204886093402AD9F7FE48E64A6
:202020009686093402AD9F7FE439507265737320616E79206B657920746F20636F6E74693F
:202040006E7565202E2E2E001B5B324A1B5B313B31482B2D2D2D2D2D2D2D2D2D2D2D2D2DCD
:202060002D2D2D2D2D2D2D2D2D2D2D2D2D2D2D2D2D2D2D2D2D2D2D2D2D2D2D2D2D2D2D2DC0
:202080002D2D2D2D2D2D2D2D2D2D2D2D2D2D2D2D2D2D2D2D2D2D2D2D2D2D2D2D2D2D2D2DA0
:2020A0002D2D2D2D2D2D2D2D2D2D2D2D2D2D2D2D2D2D2D2D2D2D2D2D2D2D2D2D2D2D2D2D80
:2020C0002D2D2D2D2D2D2D2D2D2D2D2D2D2D2D2D2D2D2D2D2D2D2D2D2D2D2D2D2D2D2D2D60
:2020E0002D2D2D2D2D2D2D2D2D2D2D2D2D2D2D2D2D2D2D2D2D2D2D2D2D2D2D2D2D2D2D2D40
:202100002D2D2D2D2D2D2D2D2D2D2D2D2D2D2D2D2D2D2D2D2D2D2D2D2D2D2D2D2D2D2D2D1F
:202120002D2D2D2D2D2D2D2D2D2D2D2D2D2D2D2D2D2D2D2D2D2D2D2D2D2D2D2B0D0A7C2002
:2021400020202020202020202020202020202020202020202020202020202020202020207F
:2021600020202020202020202020202020202020202020202020202020202020202020205F
:2021800020202020202020202020202020202020202020202020202020202020202020203F
:2021A00020202020202020202020202020202020202020202020202020202020202020201F
:2021C0002020202020202020202020202020202020202020202020202020202020202020FF
:2021E0002020202020202020202020202020202020202020202020202020202020202020DF
:202200002020202020202020202020202020202020202020202020202020202020202020BE
:20222000202020202020207C0D0A7C2020202020202020202020202020202020202020200F
:2022400020202020202020202020202020202020202020202020202020202020202020207E
:2022600020202020202020202020202020202020202020202020202020202020202020205E
:2022800020202020202020202020202020202020202020202020202020202020202020203E
:2022A00020202020202020202020202020202020202020202020202020202020202020201E
:2022C0002020202020202020202020202020202020202020202020202020202020202020FE
:2022E0002020202020202020202020202020202020202020202020202020202020202020DE
:20230000202020202020202020202020202020202020207C0D0A7C2020202020202020202E
:2023200020202020202020202020202020202020202020202020202020202020202020209D
:2023400020202020202020202020202020202020202020202020202020202020202020207D
:2023600020202020202020202020202020202020202020202020202020202020202020205D
:2023800020202020202020202020202020202020202020202020202020202020202020203D
:2023A00020202020202020202020202020202020202020202020202020202020202020201D
:2023C0002020202020202020202020202020202020202020202020202020202020202020FD
:2023E000202020202020202020202020202020202020202020202020202020202020207C81
:202400000D0A7C202020202020202020202020202020202020202020202020202020202089
:2024200020202020202020202020202020202323232323232323232323232323232020206F
:20244000202020202020232323232323232323232323232323232323202020202020202046
:20246000202020202020202020202323232020202020202020202020202020202020202350
:202480002323232323232323232323232323202020202020202020232323232323232323F7
:2024A0002323232323232323232323232020202020202020202020202020202020202020F8
:2024C0002020202020202020202020202020202020202020202020202020202020202020FC
:2024E00020202020202020202020207C0D0A7C20202020202020202020202020202020204D
:202500002020202020202020202020202020202020202020202020202020232323232323A9
:20252000232323232323232323202020202020202020232323232323232323232323232356
:20254000232323232020202020202020202020202020202020202323232020202020202066
:2025600020202020202020202020202323232323232323232323232323232020202020202E
:202580002020202323232323232323232323232323232323232323232020202020202020FC
:2025A00020202020202020202020202020202020202020202020202020202020202020201B
:2025C00020202020202020202020202020202020202020202020207C0D0A7C20202020206C
:2025E0002020202020202020202020202020202020202020202020202020202020202020DB
:20260000202020202020232323232323232323232323232323202020202020202020232387
:2026200023232323232323232323232323232323202020202020202020202020202020206A
:20264000202023232320202020202020202020202020202020202023232323232323232356
:20266000232323232323202020202020202020232323232323232323232323232323232315
:2026800023232323202020202020202020202020202020202020202020202020202020202E
:2026A00020202020202020202020202020202020202020202020202020202020202020201A
:2026C0002020207C0D0A7C202020202020202020202020202020202020202020202020206B
:2026E0002020202020202020202020202020202323232020202020202020202020202020D1
:2027000020232323202020202020232323202020202020202020202020202020232323209E
:20272000202020202020202020202023232320202023232320202020202020202020202087
:2027400023232320202020202020202020202020202023232320202020202023232320205E
:20276000202020202020202020202020202020202020202020202020202020202020202059
:20278000202020202020202020202020202020202020202020202020202020202020202039
:2027A0002020202020202020202020202020207C0D0A7C202020202020202020202020208A
:2027C0002020202020202020202020202020202020202020202020202020202323232020F0
:2027E0002020202020202020202020202023232320202020202023232320202020202020C7
:2028000020202020202020202323232020202020202020202020202323232020202323239D
:20282000202020202020202020202020232323202020202020202020202020202020232389
:2028400023202020202020232323202020202020202020202020202020202020202020206C
:20286000202020202020202020202020202020202020202020202020202020202020202058
:202880002020202020202020202020202020202020202020202020202020207C0D0A7C20A9
:2028A000202020202020202020202020202020202020202020202020202020202020202018
:2028C0002020202020202023232320202020202020202020202020202023232320202020E6
:2028E0002020232323202020202020202020202020202020232323202020202020202020C6
:2029000020202023232320202023232320202020202020202020202023232320202020209C
:20292000202020202020202020202323232020202020202323232020202020202020202085
:20294000202020202020202020202020202020202020202020202020202020202020202077
:20296000202020202020202020202020202020202020202020202020202020202020202057
:20298000202020202020207C0D0A7C202020202020202020202020202020202020202020A8
:2029A00020202020202020202020202020202020202020232323202020202020202020200E
:2029C0002020202020202020202020202020232323202020202020202020202020202020EE
:2029E0002323232020202020202020202323232020202020202020202323232020202020BC
:202A00002020202023232320202020202020202020202020202020202020202020202023AA
:202A2000232320202020202020202020202020202020202020202020202020202020202090
:202A4000202020202020202020202020202020202020202020202020202020202020202076
:202A6000202020202020202020202020202020202020207C0D0A7C202020202020202020C7
:202A8000202020202020202020202020202020202020202020202020202020202020202333
:202AA000232320202020202020202020202020202020202020202020202023232320202007
:202AC0002020202020202020202020202323232020202020202020202323232020202020E4
:202AE0002020202023232320202020202020202023232320202020202020202020202020C4
:202B00002020202020202020202020232323202020202020202020202020202020202020AC
:202B2000202020202020202020202020202020202020202020202020202020202020202095
:202B4000202020202020202020202020202020202020202020202020202020202020207C19
:202B60000D0A7C202020202020202020202020202020202020202020202020202020202022
:202B800020202020202020202020202323232020202020202020202020202020202020202C
:202BA000202020202020232323202020202020202020202020202020232323202020202003
:202BC0002020202023232320202020202020202023232320202020202020202023232320DA
:202BE0002020202020202020202020202020202020202020202020232323202020202020CC
:202C00002020202020202020202020202020202020202020202020202020202020202020B4
:202C2000202020202020202020202020202020202020202020202020202020202020202094
:202C400020202020202020202020207C0D0A7C2020202020202020202020202020202020E5
:202C6000202020202020202020202020202020202020202020202020202023232323232342
:202C80002323232323232323232020202020202020202323232323232323232323232323EF
:202CA0002323232320202020202020202023232320202020202020202020202020202023FC
:202CC0002323202020202020232323202020202020202020202020202020202020202020E5
:202CE0002020202323232323232323232323232323232020202020202020202020202020A7
:202D00002020202020202020202020202020202020202020202020202020202020202020B3
:202D200020202020202020202020202020202020202020202020207C0D0A7C202020202004
:202D4000202020202020202020202020202020202020202020202020202020202020202073
:202D6000202020202020232323232323232323232323232323202020202020202020232320
:202D80002323232323232323232323232323232320202020202020202023232320202020FA
:202DA000202020202020202020202023232320202020202023232320202020202020202001
:202DC0002020202020202020202020202020202323232323232323232323232323232020C6
:202DE0002020202020202020202020202020202020202020202020202020202020202020D3
:202E00002020202020202020202020202020202020202020202020202020202020202020B2
:202E20002020207C0D0A7C2020202020202020202020202020202020202020202020202003
:202E4000202020202020202020202020202020202020232323232323232323232323232348
:202E6000232020202020202020202323232323232323232323232323232323232020202019
:202E8000202020202023232320202020202020202020202020202023232320202020202020
:202EA0002323232020202020202020202020202020202020202020202020202323232323FA
:202EC0002323232323232323232320202020202020202020202020202020202020202020D4
:202EE0002020202020202020202020202020202020202020202020202020202020202020D2
:202F00002020202020202020202020202020207C0D0A7C2020202020202020202020202022
:202F2000202020202020202020202020202020202020202020202020202020202020202091
:202F400020202020202020202020202020232323202020202020232323202020202020205F
:202F6000202020202020202020202020202020202023232323232323232323232323232324
:202F8000232323232323202020202020232323202020202020202020202020202020202016
:202FA000202020202020202323232020202020202020202020202020202020202020202008
:202FC0002020202020202020202020202020202020202020202020202020202020202020F1
:202FE0002020202020202020202020202020202020202020202020202020207C0D0A7C2042
:203000002020202020202020202020202020202020202020202020202020202020202020B0
:20302000202020202020202020202020202020202020202020202020202323232020202087
:2030400020202323232020202020202020202020202020202020202020202020202323235E
:20306000232323232323232323232323232323232323202020202020232323202020202011
:20308000202020202020202020202020202020202020202323232020202020202020202027
:2030A000202020202020202020202020202020202020202020202020202020202020202010
:2030C0002020202020202020202020202020202020202020202020202020202020202020F0
:2030E000202020202020207C0D0A7C20202020202020202020202020202020202020202041
:203100002020202020202020202020202020202020202020202020202020202020202020AF
:2031200020202020202323232020202020202323232020202020202020202020202020207D
:20314000202020202020202020232323232323232323232323232323232323232323202030
:20316000202020202323232020202020202020202020202020202020202020202020202343
:20318000232320202020202020202020202020202020202020202020202020202020202029
:2031A00020202020202020202020202020202020202020202020202020202020202020200F
:2031C000202020202020202020202020202020202020207C0D0A7C20202020202020202060
:2031E0002020202020202020202020202020202020202020202020202020202020202023CC
:20320000232320202020202020202020202020202023232320202020202023232320202096
:20322000202020202020202020202020202020202020202020232323202020202020202085
:2032400020202020202020232323202020202020232323202020202020202020202020205C
:2032600020202323232020202020202323232020202020202020202020202020202020203C
:2032800020202020202020202020202020202020202020202020202020202020202020202E
:2032A000202020202020202020202020202020202020202020202020202020202020207CB2
:2032C0000D0A7C2020202020202020202020202020202020202020202020202020202020BB
:2032E0002020202020202020202020232323202020202020202020202020202020232323BC
:203300002020202020202323232020202020202020202020202020202020202020202020A4
:20332000202323232020202020202020202020202020202323232020202020202323232072
:2033400020202020202020202020202020202323232020202020202323232020202020205B
:2033600020202020202020202020202020202020202020202020202020202020202020204D
:2033800020202020202020202020202020202020202020202020202020202020202020202D
:2033A00020202020202020202020207C0D0A7C20202020202020202020202020202020207E
:2033C0002020202020202020202020202020202020202020202020232323202020202020E4
:2033E0002020202020202020202323232020202020202323232020202020202020202020BB
:203400002020202020202020202020202023232320202020202020202020202020202023A0
:20342000232320202020202023232320202020202020202020202020202023232320202074
:20344000202020232323202020202020202020202020202020202020202020202020202063
:2034600020202020202020202020202020202020202020202020202020202020202020204C
:2034800020202020202020202020202020202020202020202020207C0D0A7C20202020209D
:2034A00020202020202020202020202020202020202020202020202020202020202020200C
:2034C0002020202020202323232323232323232323232323232020202020202020202323B9
:2034E0002320202020202020202020202020202020202020202020202023232320202020C0
:20350000202020202020202020202023232320202020202020202023232323232323232387
:20352000232323232323202020202020202020232323232323232323232323232323232346
:2035400023232323202020202020202020202020202020202020202020202020202020205F
:2035600020202020202020202020202020202020202020202020202020202020202020204B
:203580002020207C0D0A7C202020202020202020202020202020202020202020202020209C
:2035A0002020202020202020202020202020202020202323232323232323232323232323E1
:2035C0002320202020202020202023232320202020202020202020202020202020202020DF
:2035E0002020202020232323202020202020202020202020202020232323202020202020B9
:2036000020202023232323232323232323232323232320202020202020202023232323236E
:2036200023232323232323232323232323232323202020202020202020202020202020205A
:2036400020202020202020202020202020202020202020202020202020202020202020206A
:203660002020202020202020202020202020207C0D0A7C20202020202020202020202020BB
:20368000202020202020202020202020202020202020202020202020202020202020232324
:2036A0002323232323232323232323232320202020202020202023232320202020202020DA
:2036C0002020202020202020202020202020202020232323202020202020202020202020E1
:2036E000202020232323202020202020202020232323232323232323232323232323202094
:2037000020202020202020232323232323232323232323232323232323232323202020206A
:20372000202020202020202020202020202020202020202020202020202020202020202089
:203740002020202020202020202020202020202020202020202020202020207C0D0A7C20DA
:20376000202020202020202020202020202020202020202020202020202020202020202049
:20378000202020202020202020202020202020202020202020202020202020202020202029
:2037A000202020202020202020202020202020202020202020202020202020202020202009
:2037C0002020202020202020202020202020202020202020202020202020202020202020E9
:2037E0002020202020202020202020202020202020202020202020202020202020202020C9
:203800002020202020202020202020202020202020202020202020202020202020202020A8
:20382000202020202020202020202020202020202020202020202020202020202020202088
:20384000202020202020207C0D0A7C202020202020202020202020202020202020202020D9
:20386000202020202020202020202020202020202020202020202020202020202020202048
:20388000202020202020202020202020202020202020202020202020202020202020202028
:2038A000202020202020202020202020202020202020202020202020202020202020202008
:2038C0002020202020202020202020202020202020202020202020202020202020202020E8
:2038E0002020202020202020202020202020202020202020202020202020202020202020C8
:203900002020202020202020202020202020202020202020202020202020202020202020A7
:20392000202020202020202020202020202020202020207C0D0A7C202020202020202020F8
:20394000202020202020202020202020202020202020202020202020202020202020202067
:20396000202020202020202020202020202020202020202020202020202020202020202047
:20398000202020202020202020202020202020202020202020202020202020202020202027
:2039A000202020202020202020202020202020202020202020202020202020202020202007
:2039C0002020202020202020202020202020202020202020202020202020202020202020E7
:2039E0002020202020202020202020202020202020202020202020202020202020202020C7
:203A0000202020202020202020202020202020202020202020202020202020202020207C4A
:203A20000D0A7C202020202020202020202020202020202020202020202020202020202053
:203A4000202020202020202020202020202020202020202020202020202020202020202066
:203A6000202020202020202020202020202020202020202020202020202020202020202046
:203A8000202020202020202020202020202020202020202020202020202020202020202026
:203AA000202020202020202020202020202020202020202020202020202020202020202006
:203AC0002020202020202020202020202020202020202020202020202020202020202020E6
:203AE0002020202020202020202020202020202020202020202020202020202020202020C6
:203B000020202020202020202020207C0D0A7C202020202020202020202020202020202016
:203B2000202020202020202020202020202020202020202020202020202020202020202085
:203B4000202020202020202020202020202020202020202020202020202020202020202065
:203B6000202020202020202020202020202020202020202020202020202020202020202045
:203B8000202020202020202020202020202020202020202020202020202020202020202025
:203BA000202020202020202020202020202020202020202020202020202020202020202005
:203BC0002020202020202020202020202020202020202020202020202020202020202020E5
:203BE00020202020202020202020202020202020202020202020207C0D0A7C202020202036
:203C00002020202020202020202020202020202020202020202020202020202020202020A4
:203C2000202020202020202020202020202020202020202020202020202020202020202084
:203C4000202020202020202020202020202020202020202020202020202020202020202064
:203C6000202020202020202020202020202020202020202020202020202020202020202044
:203C8000202020202020202020202020202020202020202020202020202020202020202024
:203CA000202020202020202020202020202020202020202020202020202020202020202004
:203CC0002020202020202020202020202020202020202020202020202020202020202020E4
:203CE0002020207C0D0A7C202020202020202020202323232323232323232020202020201A
:203D0000232323202020202020202020202020202020232323202020202020232323202088
:203D2000202020202020202020202020202323232020202020202020202020202020202377
:203D4000232320202020202020202020202020202023232323232323232323232323232330
:203D60002323232020202020202020202323232323232323232323232323232323232323FE
:203D80002320202020202023232323232323232323232323232323232320202020202020EA
:203DA0002020202020232323232323232323232323232323202020202020202020202020D6
:203DC0002020202020202020202020202020207C0D0A7C202020202020202020202323234B
:203DE0002323232323232020202020202323232020202020202020202020202020202323A2
:203E000023202020202020232323202020202020202020202020202020232323202020208D
:203E2000202020202020202020202023232320202020202020202020202020202023232370
:203E400023232323232323232323232323232320202020202020202023232323232323231D
:203E60002323232323232323232323232320202020202023232323232323232323232323F4
:203E80002323232323202020202020202020202020232323232323232323232323232323E6
:203EA0002020202020202020202020202020202020202020202020202020207C0D0A7C2073
:203EC0002020202020202020202323232323232323232020202020202323232020202020BE
:203EE0002020202020202020202023232320202020202023232320202020202020202020B0
:203F000020202020202323232020202020202020202020202020202323232020202020208F
:203F200020202020202020202023232323232323232323232323232323232320202020204B
:203F400020202020232323232323232323232323232323232323232323202020202020231F
:203F6000232323232323232323232323232323232320202020202020202020202023232305
:203F80002323232323232323232323232020202020202020202020202020202020202020FD
:203FA000202020202020207C0D0A7C20202020202020202020202020232323202020202069
:203FC0002020202023232323232320202020202020202020202023232320202020202023C3
:203FE0002323202020202020202020202020202020232323202020202020202020202020B2
:20400000232323202020232323202020202020202020202020232323202020202020202085
:2040200020202020202020232323202020202020232323202020202020202020202020206E
:2040400020202020202020202020202323232020202020202020202020202020202323234E
:2040600020202020202023232320202020202020202020202020202023232320202020202E
:20408000202020202020202020202020202020202020207C0D0A7C20202020202020202091
:2040A0002020202023232320202020202020202023232323232320202020202020202020E5
:2040C0002020232323202020202020232323202020202020202020202020202020232323C5
:2040E0002020202020202020202020202323232020202323232020202020202020202020AE
:20410000202323232020202020202020202020202020202323232020202020202323232084
:20412000202020202020202020202020202020202020202020202023232320202020202076
:2041400020202020202020202023232320202020202023232320202020202020202020204D
:20416000202020202323232020202020202020202020202020202020202020202020207CDA
:204180000D0A7C2020202020202020202020202023232320202020202020202023232323D7
:2041A0002323202020202020202020202020232323202020202020232323202020202020E7
:2041C0002020202020202020202323232020202020202020202020202323232020202323C7
:2041E0002320202020202020202020202023232320202020202020202020202020202023B0
:2042000023232020202020202323232020202020202020202020202020202020202020208F
:20422000202020232323202020202020202020202020202020232323202020202020232366
:20424000232020202020202020202020202020202323232020202020202020202020202052
:2042600020202020202020202020207C0D0A7C2020202020202020202020202023232320A6
:20428000202020202020202023232320202023232320202020202020202023232320202003
:2042A0002020202323232020202020202020202020202020202323232020202020202020EC
:2042C0002023232320202020202020202023232320202020202020202023232320202020C3
:2042E0002020202020202020202020232323202020202020232323202020202020202020AC
:20430000202020202020202020202020202020232323202020202020202020202020202094
:2043200020232323202020202020232323202020202020202020202020202020202020206B
:2043400020202020202020202020202020202020202020202020207C0D0A7C2020202020CE
:20436000202020202020202023232320202020202020202023232320202023232320202022
:2043800020202020202023232320202020202023232320202020202020202020202020200B
:2043A0002023232320202020202020202023232320202020202020202023232320202020E2
:2043C0002020202020232323202020202020202020202020202020232323202020202020CB
:2043E0002323232020202020202020202020202020202020202020202020202323232020AB
:2044000020202020202020202020202020232323202020202020232323202020202020208A
:2044200020202020202020202020202020202020202020202020202020202020202020207C
:204440002020207C0D0A7C20202020202020202020202020232323202020202020202020C4
:20446000232323202020232323202020202020202020232323202020202020232323202018
:2044800020202020202020202020202020232323202020202020202020232323202020200A
:2044A0002020202020232323202020202020202020232323202020202020202020202020EA
:2044C0002020202323232020202020202323232020202020202020202020202020202020CA
:2044E0002020202020202023232320202020202020202020202020202023232320202020AA
:20450000202023232320202020202020202020202020202020202020202020202020202092
:204520002020202020202020202020202020207C0D0A7C20202020202020202020202020EC
:2045400023232320202020202020202023232320202020202023232320202020202023233A
:20456000232020202020202323232020202020202020202020202020202323232020202026
:20458000202023232320202020202020202020202020202023232320202020202023232300
:2045A0002020202020202020202020202020202323232020202020202323232323232323DA
:2045C00023232323232323202020202020202020202020232323232323232323232323239F
:2045E00023232323232020202020202020202020202323232323232323232323232323237F
:204600002020202020202020202020202020202020202020202020202020207C0D0A7C200B
:20462000202020202020202020202020232323202020202020202020232323202020202068
:2046400020232323202020202020232323202020202020232323202020202020202020203F
:20466000202020202023232320202020202023232320202020202020202020202020202028
:204680002323232020202020202323232020202020202020202020202020202323232020FF
:2046A0002020202023232323232323232323232323232320202020202020202020202023CA
:2046C00023232323232323232323232323232323232020202020202020202020202323239E
:2046E000232323232323232323232323202020202020202020202020202020202020202096
:20470000202020202020207C0D0A7C20202020202020202020202020232323202020202001
:2047200020202020232323202020202020232323202020202020232323202020202020235B
:20474000232320202020202020202020202020202023232320202020202023232320202041
:20476000202020202020202020202020232323202020202020232323202020202020202027
:204780002020202020202023232320202020202023232323232323232323232323232320E3
:2047A0002020202020202020202020232323232323232323232323232323232323202020C3
:2047C0002020202020202020202323232323232323232323232323232020202020202020AC
:2047E000202020202020202020202020202020202020207C0D0A7C2020202020202020202A
:2048000020202020232323202020202020202020232323202020202020202020232323207D
:2048200020202323232020202020202020202323232020202020202020202323232020205D
:20484000202020202020232323232323232323232323232323232323232323202020202019
:2048600020232323202020202020202020202020202020232323202020202020232323201D
:2048800020202020202020202020202020202020202020202020202323232020202020200F
:2048A0002020202323232020202020202020202020202020202020202020202020202020EF
:2048C000202020202323232020202020202020202020202020202020202020202020207C73
:2048E0000D0A7C202020202020202020202020202323232020202020202020202323232073
:2049000020202020202020202323232020202323232020202020202020202323232020207C
:20492000202020202020232323202020202020202020232323232323232323232323232344
:20494000232323232323232020202020202323232020202020202020202020202020202336
:20496000232320202020202023232320202020202020202020202020202020202020202028
:20498000202020232323202020202020202020232323202020202020202020202020202005
:2049A0002020202020202020202020202020202023232320202020202020202020202020EE
:2049C00020202020202020202020207C0D0A7C20202020202020202020202020232323203F
:2049E00020202020202020202323232020202020202020202323232020202323232020209C
:204A000020202020202023232320202020202020202023232320202020202020202023237E
:204A2000232323232323232323232323232323232323232020202020202323232020202034
:204A4000202020202020202020202023232320202020202023232320202020202020202044
:204A6000202020202020202020202020202020232323202020202020202020232323202024
:204A800020202020202020202020202020202020202020202020202020202020232323200D
:204AA00020202020202020202020202020202020202020202020207C0D0A7C202020202067
:204AC0002020202020202020232323202020202020202020232323202020202020202020C4
:204AE000202020232323232323202020202020202020202020232323202020232323202092
:204B0000202020202020202020202323232020202020202020202020202020202323232083
:204B2000202020202023232320202020202020202020202020202023232320202020202063
:204B4000232323202020202020202020202020202020202020202020202020232323202043
:204B6000202020202020202020202323232020202020202020202323232020202020202023
:204B800020202020202020202323232020202020202020202020202020202020202020200C
:204BA0002020207C0D0A7C202020202020202020202020202323232020202020202020205D
:204BC0002323232020202020202020202020202323232323232020202020202020202020BA
:204BE00020232323202020232323202020202020202020202020232323202020202020209A
:204C0000202020202020202023232320202020202023232320202020202020202020202082
:204C2000202020232323202020202020232323202020202020202020202020202020202062
:204C4000202020202020202323232020202020202020202020202323232020202020202042
:204C6000202023232320202020202020202020202020202023232320202020202020202022
:204C80002020202020202020202020202020207C0D0A7C2020202020202020202020202085
:204CA0002323232020202020202020202323232020202020202020202020202323232323D3
:204CC0002320202020202020202020202023232320202023232320202020202020202020BF
:204CE000202023232320202020202020202020202020202023232320202020202023232399
:204D0000202020202020202020202020202020232323202020202020232323202020202081
:204D200020202020202020202020202020202020202020232323202020202020202020206A
:204D4000202023232320202020202020202023232320202020202020202020202020202041
:204D60002323232020202020202020202020202020202020202020202020207C0D0A7C209B
:204D80002020202020202020202323232323232323232020202020202323232020202020EF
:204DA0002020202020202020202023232320202020202020202020202020202023232320E1
:204DC0002020202020202020202020202020232323202020202020202020202020202020CA
:204DE000232323202020202020232323232323232323232323232323232323202020202074
:204E0000202020202323232323232323232323232323232323232323232020202020202350
:204E200023232020202020202020202020202020202323232020202020202020202323235A
:204E400023232323232323232323232320202020202020202020202020202020202020202E
:204E6000202020202020207C0D0A7C20202020202020202020232323232323232323202088
:204E8000202020202323232020202020202020202020202020202323232020202020202000
:204EA0002020202020202020232323202020202020202020202020202020232323202020E0
:204EC0002020202020202020202020202323232020202020202323232323232323232323A8
:204EE00023232323232323202020202020202020232323232323232323232323232323236D
:204F0000232323232320202020202023232320202020202020202020202020202023232370
:204F2000202020202020202020232323232323232323232323232323202020202020202044
:204F4000202020202020202020202020202020202020207C0D0A7C202020202020202020C2
:204F600020232323232323232323202020202020232323202020202020202020202020200D
:204F80002020232323202020202020202020202020202020232323202020202020202020FF
:204FA0002020202020202323232020202020202020202020202020202323232020202020DF
:204FC00020232323232323232323232323232323232323202020202020202020232323238F
:204FE000232323232323232323232323232323232320202020202023232320202020202075
:20500000202020202020202020232323202020202020202020232323232323232323232366
:20502000232323232020202020202020202020202020202020202020202020202020207C08
:205040000D0A7C20202020202020202020202020202020202020202020202020202020201D
:20506000202020202020202020202020202020202020202020202020202020202020202030
:20508000202020202020202020202020202020202020202020202020202020202020202010
:2050A0002020202020202020202020202020202020202020202020202020202020202020F0
:2050C0002020202020202020202020202020202020202020202020202020202020202020D0
:2050E0002020202020202020202020202020202020202020202020202020202020202020B0
:2051000020202020202020202020202020202020202020202020202020202020202020208F
:2051200020202020202020202020207C0D0A7C2020202020202020202020202020202020E0
:2051400020202020202020202020202020202020202020202020202020202020202020204F
:2051600020202020202020202020202020202020202020202020202020202020202020202F
:2051800020202020202020202020202020202020202020202020202020202020202020200F
:2051A0002020202020202020202020202020202020202020202020202020202020202020EF
:2051C0002020202020202020202020202020202020202020202020202020202020202020CF
:2051E0002020202020202020202020202020202020202020202020202020202020202020AF
:2052000020202020202020202020202020202020202020202020207C0D0A7C2020202020FF
:2052200020202020202020202020202020202020202020202020202020202020202020206E
:2052400020202020202020202020202020202020202020202020202020202020202020204E
:2052600020202020202020202020202020202020202020202020202020202020202020202E
:2052800020202020202020202020202020202020202020202020202020202020202020200E
:2052A0002020202020202020202020202020202020202020202020202020202020202020EE
:2052C0002020202020202020202020202020202020202020202020202020202020202020CE
:2052E0002020202020202020202020202020202020202020202020202020202020202020AE
:205300002020207C0D0A7C20202020202020202020202020202020202020202020202020FE
:2053200020202020202020202020202020202020202020202020202020202020202020206D
:2053400020202020202020202020202020202020202020202020202020202020202020204D
:2053600020202020202020202020202020202020202020202020202020202020202020202D
:2053800020202020202020202020202020202020202020202020202020202020202020200D
:2053A0002020202020202020202020202020202020202020202020202020202020202020ED
:2053C0002020202020202020202020202020202020202020202020202020202020202020CD
:2053E0002020202020202020202020202020207C0D0A7C202020202020202020202020201E
:2054000020202020202020202020202020202020202020202020202020202020202020208C
:2054200020202020202020202020202020202020202020202020202020202020202020206C
:2054400020202020202020202020202020202020202020202020202020202020202020204C
:2054600020202020202020202020202020202020202020202020202020202020202020202C
:2054800020202020202020202020202020202020202020202020202020202020202020200C
:2054A0002020202020202020202020202020202020202020202020202020202020202020EC
:2054C0002020202020202020202020202020202020202020202020202020207C0D0A7C203D
:2054E0002020202020202020202020202020202020202020202020202020202020202020AC
:2055000020202020202020202020202020202020202020202020202020202020202020208B
:2055200020202020202020202020202020202020202020202020202020202023232323235C
:2055400023202020202020202023232323232323232020202020202020232323232323201E
:20556000202020202020202323232323232020202020202020202020202020202020202019
:2055800020202020202020202020202020202020202020202020202020202020202020200B
:2055A0002020202020202020202020202020202020202020202020202020202020202020EB
:2055C000202020202020207C0D0A7C2020202020202020202020202020202020202020203C
:2055E0002020202020202020202020202020202020202020202020202020202020202020AB
:2056000020202020202020202020202020202020202020202020202020202020202020208A
:20562000202020202020202323232323232020202020202020232323232323232320202040
:20564000202020202023232323232320202020202020202323232323232020202020202026
:2056600020202020202020202020202020202020202020202020202020202020202020202A
:2056800020202020202020202020202020202020202020202020202020202020202020200A
:2056A000202020202020202020202020202020202020207C0D0A7C2020202020202020205B
:2056C0002020202020202020202020202020202020202020202020202020202020202020CA
:2056E0002020202020202020202020202020202020202020202020202020202020202020AA
:2057000020202020202020202020202020202020202323202020202020232320202020237A
:20572000232020202020202323232320202020232320202020202023232020202023232048
:20574000202020202023232020202020202020202020202020202020202020202020202043
:20576000202020202020202020202020202020202020202020202020202020202020202029
:20578000202020202020202020202020202020202020202020202020202020202020207CAD
:2057A0000D0A7C2020202020202020202020202020202020202020202020202020202020B6
:2057C0002020202020202020202020202020202020202020202020202020202020202020C9
:2057E0002020202020202020202020202020202020202020202020202020202020232320A3
:2058000020202020202323202020202323202020202020232323232020202023232020206A
:20582000202020232320202020232320202020202023232020202020202020202020202056
:20584000202020202020202020202020202020202020202020202020202020202020202048
:20586000202020202020202020202020202020202020202020202020202020202020202028
:2058800020202020202020202020207C0D0A7C202020202020202020202020202020202079
:2058A0002020202020202020202020202020202020202020202020202020202020202020E8
:2058C0002020202020202020202020202020202020202020202020202020202020202020C8
:2058E000202020202020202020232320202020202023232020202023232020202023232090
:2059000020232320202020232320202020202023232020202020202020202020202323206F
:20592000202020202020202020202020202020202020202020202020202020202020202067
:20594000202020202020202020202020202020202020202020202020202020202020202047
:2059600020202020202020202020202020202020202020202020207C0D0A7C202020202098
:20598000202020202020202020202020202020202020202020202020202020202020202007
:2059A0002020202020202020202020202020202020202020202020202020202020202020E7
:2059C0002020202020202020202020202020202020202020202323202020202020232320BB
:2059E000202020232320202020232320202323202020202323202020202020232320202089
:205A0000202020202020202020232320202020202020202020202020202020202020202080
:205A2000202020202020202020202020202020202020202020202020202020202020202066
:205A4000202020202020202020202020202020202020202020202020202020202020202046
:205A60002020207C0D0A7C2020202020202020202020202020202020202020202020202097
:205A8000202020202020202020202020202020202020202020202020202020202020202006
:205AA0002020202020202020202020202020202020202020202020202020202020202020E6
:205AC0002020202020202023232020202020202323202023232020202023232020202020AE
:205AE00020202020202323202020202020202023232323232320202020202020202020208E
:205B0000202020202020202020202020202020202020202020202020202020202020202085
:205B2000202020202020202020202020202020202020202020202020202020202020202065
:205B40002020202020202020202020202020207C0D0A7C20202020202020202020202020B6
:205B6000202020202020202020202020202020202020202020202020202020202020202025
:205B8000202020202020202020202020202020202020202020202020202020202020202005
:205BA0002020202020202020202020202020202020202023232020202020202323202023D6
:205BC0002320202020232320202020202020202020232320202020202020202323232323A7
:205BE0002320202020202020202020202020202020202020202020202020202020202020A2
:205C0000202020202020202020202020202020202020202020202020202020202020202084
:205C20002020202020202020202020202020202020202020202020202020207C0D0A7C20D5
:205C4000202020202020202020202020202020202020202020202020202020202020202044
:205C6000202020202020202020202020202020202020202020202020202020202020202024
:205C80002020202020202020202020202020202020202020202020202020202020232320FE
:205CA0002020202020202023232323202020202020232320202020202020202323202020CC
:205CC0002020202020202020202020202023232020202020202020202020202020202020BE
:205CE0002020202020202020202020202020202020202020202020202020202020202020A4
:205D0000202020202020202020202020202020202020202020202020202020202020202083
:205D2000202020202020207C0D0A7C202020202020202020202020202020202020202020D4
:205D4000202020202020202020202020202020202020202020202020202020202020202043
:205D6000202020202020202020202020202020202020202020202020202020202020202023
:205D80002020202020202020202323202020202020202023232323202020202020232320EB
:205DA0002020202020202023232020202020202020202020202020202023232020202020D7
:205DC0002020202020202020202020202020202020202020202020202020202020202020C3
:205DE0002020202020202020202020202020202020202020202020202020202020202020A3
:205E0000202020202020202020202020202020202020207C0D0A7C202020202020202020F3
:205E2000202020202020202020202020202020202020202020202020202020202020202062
:205E4000202020202020202020202020202020202020202020202020202020202020202042
:205E6000202020202020202020202020202020202020202323202020202020202020202319
:205E80002320202020202020202323202020202020232320202020202020202020232320ED
:205EA0002020202020232320202020202020202020202020202020202020202020202020DC
:205EC0002020202020202020202020202020202020202020202020202020202020202020C2
:205EE000202020202020202020202020202020202020202020202020202020202020207C46
:205F00000D0A7C20202020202020202020202020202020202020202020202020202020204E
:205F2000202020202020202020202020202020202020202020202020202020202020202061
:205F400020202020202020202020202020202020202020202020202020202020202020233E
:205F600023202020202020202020202323202020202020202023232020202020202323200C
:205F80002020202020202020202323202020202020232320202020202020202020202020F5
:205FA0002020202020202020202020202020202020202020202020202020202020202020E1
:205FC0002020202020202020202020202020202020202020202020202020202020202020C1
:205FE00020202020202020202020207C0D0A7C202020202020202020202020202020202012
:20600000202020202020202020202020202020202020202020202020202020202020202080
:20602000202020202020202020202020202020202020202020202020202020202020202060
:2060400020202020202020202023232323232323232323202020202020232323232323230D
:206060002320202020202023232323232323232323202020202020232323232323202020ED
:20608000202020202020202020202020202020202020202020202020202020202020202000
:2060A0002020202020202020202020202020202020202020202020202020202020202020E0
:2060C00020202020202020202020202020202020202020202020207C0D0A7C202020202031
:2060E0002020202020202020202020202020202020202020202020202020202020202020A0
:2061000020202020202020202020202020202020202020202020202020202020202020207F
:20612000202020202020202020202020202020202020202020232323232323232323232041
:20614000202020202023232323232323232020202020202323232323232323232320202009
:2061600020202023232323232320202020202020202020202020202020202020202020200D
:206180002020202020202020202020202020202020202020202020202020202020202020FF
:2061A0002020202020202020202020202020202020202020202020202020202020202020DF
:2061C0002020207C0D0A7C2020202020202020202020202020202020202020202020202030
:2061E00020202020202020202020202020202020202020202020202020202020202020209F
:2062000020202020202020202020202020202020202020202020202020202020202020207E
:2062200020202020202020202020202020202020202020202020202020202020202020205E
:2062400020202020202020202020202020202020202020202020202020202020202020203E
:2062600020202020202020202020202020202020202020202020202020202020202020201E
:206280002020202020202020202020202020202020202020202020202020202020202020FE
:2062A0002020202020202020202020202020207C0D0A7C202020202020202020202020204F
:2062C0002020202020202020202020202020202020202020202020202020202020202020BE
:2062E00020202020202020202020202020202020202020202020202020202020202020209E
:2063000020202020202020202020202020202020202020202020202020202020202020207D
:2063200020202020202020202020202020202020202020202020202020202020202020205D
:2063400020202020202020202020202020202020202020202020202020202020202020203D
:2063600020202020202020202020202020202020202020202020202020202020202020201D
:206380002020202020202020202020202020202020202020202020202020207C0D0A2B2DB2
:2063A0002D2D2D2D2D2D2D2D2D2D2D2D2D2D2D2D2D2D2D2D2D2D2D2D2D2D2D2D2D2D2D2D3D
:2063C0002D2D2D2D2D2D2D2D2D2D2D2D2D2D2D2D2D2D2D2D2D2D2D2D2D2D2D2D2D2D2D2D1D
:2063E0002D2D2D2D2D2D2D2D2D2D2D2D2D2D2D2D2D2D2D2D2D2D2D2D2D2D2D2D2D2D2D2DFD
:206400002D2D2D2D2D2D2D2D2D2D2D2D2D2D2D2D2D2D2D2D2D2D2D2D2D2D2D2D2D2D2D2DDC
:206420002D2D2D2D2D2D2D2D2D2D2D2D2D2D2D2D2D2D2D2D2D2D2D2D2D2D2D2D2D2D2D2DBC
:206440002D2D2D2D2D2D2D2D2D2D2D2D2D2D2D2D2D2D2D2D2D2D2D2D2D2D2D2D2D2D2D2D9C
:206460002D2D2D2D2D2D2D2D2D2D2D2D2D2D2D2D2D2D2D2D2D2D2D2D2D2D2D2D2D2D2D2D7C
:206480002D2D2D2D2D2D2D2B0D0A42792047696C6861640D0A001B5B313B31481B5B33330D
:2064A0003B34343B316D2B2D2D2D2D2D2D2D2D2D2D2D2D2D2D2D2D2D2D2D2D2D2D2D2D2DD0
:2064C0002D2D2D2D2D2D2D2D2D2D2D2D2D2D2D2D2D2D2D2D2D2D2D2D2D2D2B0D0A7C20202C
:2064E00020202020202020202020202020202020202020202020202020202020202020209C
:2065000020202020202020202020202020202020207C0D0A7C2020202020202020202020EC
:2065200020202020202020202020202020202020202020202020202020202020202020205B
:2065400020202020202020207C0D0A7C2020202020202020202020202020202020202020AC
:20656000202020202020202020202020202020202020202020202020202020202020207CBF
:206580000D0A7C2020202020202323232020202020202020202020202020202020202020BF
:2065A000202020202020202020202020202020202020202020207C0D0A7C202020207E23EB
:2065C000202020237E2020202020202020202020202020202020202020202020202020205A
:2065E000202020202020202020202020207C0D0A7C20202020202023232320202020202003
:2066000020202020202020202020202020202020202020202020202020202020202020207A
:20662000202020207C0D0A7C202020202020202020202020202020202020202020202020CB
:206640002020202020202020202020202020202020202020202020202020207C0D0A7C20AB
:206660002020202323232020232323202023232320202323232020232323202023232320E4
:206680002023232320202323232020202020202020207C0D0A7C202020202323232020234D
:2066A00023232020232323202023232320202323232020232323202023232320202323239E
:2066C0002020202020202020207C0D0A7C2020202023202320202320232020232023202019
:2066E00023202320202320232020232023202023202320202320232020202020202020207C
:206700007C0D0A7C20202020202020202020202020202020202020202020202020202020EA
:2067200020202020202020202020202020202020202020202020207C0D0A7C2020202020CA
:20674000402020202040202020204020202020402020202040202020204020202020402059
:2067600020202040202020202020202020207C0D0A7C2020202040204020204020402020EA
:20678000402040202040204020204020402020402040202040204020204020402020202079
:2067A00020202020207C0D0A7C2020202040404020204040402020404040202040404020CA
:2067C000204040402020404040202040404020204040402020202020202020207C0D0A7CAA
:2067E000202020202020202020202020202020202020202020202020202020202020202099
:20680000202020202020202020202020202020202020207C0D0A7C202020202020202020E9
:20682000202020202020202020202020202020202020202020202020202020202020202058
:20684000202020202020202020207C0D0A7C202020202020202020202020202020202020A9
:20686000202020202020202020202020202020202020202020202020202020202020202018
:20688000207C0D0A7C2020202020252525202020202020202020202020202025252520204B
:2068A0002020202020202020202020252525202020202020202020207C0D0A7C2020202535
:2068C000252525252525202020202020202020202525252525252520202020202020202077
:2068E0002525252525252520202020202020207C0D0A7C20202525252525252525252020B9
:2069000020202020202025252525252525252520202020202020252525252525252525201D
:206920002020202020207C0D0A7C202025252525252525252520202020202020202525258C
:2069400025252525252520202020202020252525252525252525202020202020207C0D0AB9
:206960007C20202020202020202020202020202020202020202020202020202020202020BB
:2069800020202020202020202020202020202020202020207C0D0A7C202020202020242064
:2069A0002020202020202020202020202020202020202020202020202020202020202020D7
:2069C00020202020202020202020207C0D0A7C20202020202424242020202020202020201C
:2069E000202020202020202020202020202020202020202020202020202020202020202097
:206A000020207C0D0A2B2D2D2D2D2D2D2D2D2D2D2D2D2D2D2D2D2D2D2D2D2D2D2D2D2D2DE6
:206A20002D2D2D2D2D2D2D2D2D2D2D2D2D2D2D2D2D2D2D2D2D2D2D2D2D2B0D0A1B5B313BCD
:196A400039313B34326D42792047696C6861641B5B306D1B5B323742006D
:00200001DF
